:1000000012C021C020C012C11EC01DC01CC01BC018
:100010001AC019C018C017C016C015C014C013C02C
:1000200012C011C010C011241FBECFE5D4E0DEBF46
:10003000CDBF20E0A0E6B0E001C01D92A336B2071C
:10004000E1F70DD077C1DCCF33D1863020F0893F86
:1000500020F48550089580E0089584EF0895F89481
:10006000479AAA98A298A898A098ABD0F6D017D192
:10007000789485B78F7885BF85B7806885BF98EEFF
:10008000C92E93E0D92ECFEF24EF822E912CA12CF4
:10009000B12CF9D08C01C43009F463C058F4C130DC
:1000A00009F440C0F0F0C23009F447C0C33009F48D
:1000B0004EC085C0C73009F471C038F4C53009F4AA
:1000C00059C0C63009F460C07AC0C83009F470C0A5
:1000D000CF3F09F074C08AD093D09CD0A5D0C0E0A7
:1000E0006EC09A9B6CC0379AC4E0E12CF12C80E082
:1000F000ABDFE80EF11CC150D1F737989701369568
:10010000279536952795ACEDB5E008D1A50194016A
:10011000E3D069018CE0C81A8EEFD80A5FD078016D
:10012000C1E04DC08E199F098C159D0508F447C08C
:100130005DD05ED07801C2E042C08E199F098C1557
:100140009D05E8F15DD05ED07801C3E038C08E191E
:100150009F098C159D0598F15DD05ED07801C4E0B3
:100160002EC08E199F098C159D0548F159D0780134
:10017000C5E025C08E199F098C159D0500F154D04E
:1001800045D07801C6E01BC08E199F098C159D05CE
:10019000B0F040D031D07801C7E011C08E199F096E
:1001A0008C159D0560F02CD01DD07801C8E007C0EB
:1001B0000E191F090C151D0510F018D0CFEF8895EA
:1001C00068CF9698C0988E9AB89A9598C5988D9A47
:1001D000BD9AC698C798BE9ABF9A0895969AC09835
:1001E000959A08959698C09A959A08959598089525
:1001F000969AC098C59A08959698C09AC59A0895F7
:10020000C5980895969AC098C69A08959698C09AE7
:10021000C69A0895C6980895969AC098C79A089560
:100220009698C09AC79A0895C79808951F920F92FA
:100230000FB60F9211248F939F938091600090913D
:100240006100019690936100809360009F918F916F
:100250000F900FBE0F901F90189510926100109292
:10026000600082B5877F82BD88E085BD14BC89EFC0
:1002700083BD88B7807888BF89B7806889BF85B516
:10028000836085BD08958091600090916100209108
:1002900060003091610082179307A9F708951092CA
:1002A000620086E086B980916200806687B9089511
:1002B000837090916200891751F08093620080668C
:1002C00087B98FE891E00197F1F700C00000369AF6
:1002D0003699FECF85B10895A1E21A2EAA1BBB1B49
:1002E000FD010DC0AA1FBB1FEE1FFF1FA217B30702
:1002F000E407F50720F0A21BB30BE40BF50B661F18
:10030000771F881F991F1A9469F7609570958095DB
:1003100090959B01AC01BD01CF010895A29FB00152
:10032000B39FC001A39F01D0B29F700D811D112406
:08033000911D0895F894FFCF20
:00000001FF
