:1000000012C021C020C025C11EC01DC01CC01BC005
:100010001AC019C018C017C016C015C014C013C02C
:1000200012C011C010C011241FBECFE5D4E0DEBF46
:10003000CDBF20E0A0E6B0E001C01D92A336B2071C
:10004000E1F70DD08AC1DCCF46D1863020F0893F60
:1000500020F48550089580E0089584EF0895F89481
:10006000479AAA98A298A898A098BED009D12AD158
:10007000789485B78F7885BF85B7806885BF28EE6F
:10008000C22E23E0D22ECFEF34EF432E512C612C21
:10009000712C0CD18C01C53009F476C088F4C230C3
:1000A00009F454C030F4CC2311F1C13009F443C039
:1000B00099C0C33009F455C0C43009F45CC092C083
:1000C000C83009F47EC038F4C63009F466C0C730C1
:1000D00009F46DC087C0C93009F47DC0CF3F09F075
:1000E00081C097D0A0D0A9D0B2D0C0E07BC09A9BED
:1000F00079C0379AC4E0E12CF12C80E0A5DFE80E4E
:10010000F11CC150D1F73798970136952795369550
:100110002795ACEDB5E015D1A3019201F0D06901AE
:100120008CE0C81A8EEFD80A5601AA0CBB1C69D005
:100130007801C1E057C08E199F098C159D0508F400
:1001400051C067D068D07801C2E04CC08E199F09B9
:100150008C159D0508F446C066D067D07801C3E0D1
:1001600041C08E199F098C159D05E0F166D067D0BE
:100170007801C4E037C08E199F098C159D0590F158
:1001800066D07801C5E02EC08E199F098A159B059F
:1001900048F159D07801C6E025C08E199F098C1509
:1001A0009D0500F154D045D07801C7E01BC08E19E1
:1001B0009F098C159D05B0F040D031D07801C8E082
:1001C00011C08E199F098C159D0560F02CD01DD093
:1001D0007801C9E007C00E191F090C151D0510F0A4
:1001E00018D0CFEF889555CF9698C0988E9AB89A28
:1001F0009598C5988D9ABD9AC698C798BE9ABF9A89
:100200000895969AC098959A08959698C09A959A46
:10021000089595980895969AC098C59A08959698C5
:10022000C09AC59A0895C5980895969AC098C69A96
:1002300008959698C09AC69A0895C6980895969A71
:10024000C098C79A08959698C09AC79A0895C79873
:1002500008951F920F920FB60F9211248F939F93C0
:10026000809160009091610001969093610080936D
:1002700060009F918F910F900FBE0F901F90189567
:10028000109261001092600082B5877F82BD88E085
:1002900085BD14BC89EF83BD88B7807888BF89B7D6
:1002A000806889BF85B5836085BD089580916000B1
:1002B0009091610020916000309161008217930756
:1002C000A9F708951092620086E086B980916200D5
:1002D000806687B90895837090916200891751F004
:1002E00080936200806687B98FE891E00197F1F70B
:1002F00000C00000369A3699FECF85B10895A1E27C
:100300001A2EAA1BBB1BFD010DC0AA1FBB1FEE1F8F
:10031000FF1FA217B307E407F50720F0A21BB30BDA
:10032000E40BF50B661F771F881F991F1A9469F756
:1003300060957095809590959B01AC01BD01CF01B2
:100340000895A29FB001B39FC001A39F01D0B29FA7
:0E035000700D811D1124911D0895F894FFCFAA
:00000001FF
